:020000022000DC
:106000000000042021780400617804006378040013
:1060100065780400677804006978040000000000D7
:106020000000000000000000000000009D77040058
:106030006D78040000000000BD7704007178040052
:10604000B57A04007378040073780400B93A040048
:106050007378040073780400955104007378040089
:106060007378040073780400737804007378040074
:106070007378040073780400737804007378040064
:1060800073780400217504007378040073780400A9
:10609000737804007378040095000400737804009A
:1060A0007378040073780400737804007378040034
:1060B0007378040073780400000000000000000002
:1060C00073780400737804007378040045060500B3
:1060D000737804007378040073780400F16B020095
:1060E00073780400737804007378040000000000E3
:1060F000000000007378040000000000BD060500E9
:10610000000000000000000000000000000000008F
:10611000000000000000000000000000000000007F
:10612000000000000000000000000000000000006F
:10613000000000000000000000000000000000005F
:10614000000000000000000000000000000000004F
:10615000000000000000000000000000000000003F
:10616000000000000000000000000000000000002F
:10617000000000000000000000000000000000001F
:10618000000000000000000000000000000000000F
:1061900000000000000000000000000000000000FF
:1061A00000000000000000000000000000000000EF
:1061B00000000000000000000000000000000000DF
:1061C00000000000000000000000000000000000CF
:1061D00000000000000000000000000000000000BF
:1061E00000000000000000000000000000000000AF
:1061F000000000000000000000000000000000009F
:10620000F1EE103A43F08073E1EE103A704700BFB0
:1062100010B5054C237833B9044B13B10448AFF3E0
:1062200000800123237010BD2466002000000000C0
:10623000B4EA050008B5034B1BB103490348AFF3AB
:10624000008008BD0000000028660020B4EA0500B8
:10625000154B002B08BF134B9D46A3F5803A002138
:106260008B460F461348144A121A30F04AFE0F4B61
:10627000002B00D098470E4B002B00D098470020F1
:10628000002104000D000D48002802D00C48AFF397
:10629000008030F0B9FD2000290021F013FB30F020
:1062A0008DFD00BF00000800000004200000000079
:1062B000000000002466002048BB00200000000011
:1062C000000000000146014800F0EEB960660020C1
:1062D00038B500F02FF940B10024054620460134BE
:1062E00000F0B4FDE0B28542F9D838BD70B592B087
:1062F0001D460C46164601A84222002130F001FE40
:10630000412D02D8002012B070BD621CD2B202230F
:106310008DF806408DF80E408DF826408DF81E2031
:106320008DF827208DF8312040F20945052240F2F2
:1063300001248DF807308DF808308DF809308DF87C
:1063400012308DF821308DF822308DF833308DF8F1
:106350003B30ADF80C502423ADF810408DF81520DB
:106360008DF823201B4D8DF81630042201248DF862
:1063700020308DF8243006958DF81C408DF81F20B4
:106380008DF830203046144D0A9540F60836082323
:106390004FF411640A22ADF804608DF82C30ADF88A
:1063A0002E4040238DF8342001A9062640F20755DF
:1063B0000A4C8DF825604222ADF838508DF83C30FB
:1063C0008DF84330CDF83F4030F077FD422012B0D9
:1063D00070BD00BF2001052407058003070580026A
:1063E000A0F11000FFF782BF007EFF2806D010B595
:1063F00000F08EFC044618B1204610BD0020704706
:1064000021F0ACFC204610BD007EFF280ED000B568
:1064100083B00DF1070100F0BFFC20B19DF807002B
:1064200003B05DF804FB4FF0FF30F9E74FF0FF30A9
:10643000704700BF007EFF2811D000B583B0012255
:106440000DF1070100F070FC20B94FF0FF3003B0F0
:106450005DF804FB9DF8070003B05DF804FB4FF006
:10646000FF307047007EFF2801D000F0EFBC70477E
:10647000007EFF2801D000F02FBD0020704700BF34
:10648000F8B50646007EFF281CD017465AB10D46C7
:10649000144600F017FC2946224680B1307E00F0F9
:1064A00085FC241A01D13846F8BD054421F056FC7C
:1064B000307E00F007FC294622460028EED13F1B23
:1064C0003846F1E70020F8BD70B50368184A5B68EC
:1064D00082B093428DF8071024D10546007EFF2834
:1064E0001DD000F0EFFB0DF10706012431462246D6
:1064F00088B1287E00F05AFC241A02D1012002B093
:1065000070BD064421F02AFC287E00F0DBFB3146FA
:1065100022460028EDD1C4F1010002B070BD002078
:1065200002B070BD01220DF10701984702B070BDA5
:1065300081640200014B1878704700BF5C66002040
:10654000037EFF2B00D07047064B1A78002AFAD141
:10655000054902764161012200F1100103481A70D9
:1065600000F042B85C660020989F0500606600203D
:10657000007EFF2807D000B583B000F0A3FB20B158
:1065800003B05DF804FB00207047019021F0E6FBAA
:10659000019803B05DF804FB01B900B1704700B584
:1065A00083B0694600F0A4FB009BB3F5966F02D060
:1065B00003B05DF804FB00F031FBF9E730B4084BA1
:1065C000084AFF2002F108054FF47A7400213032A6
:1065D00018761D609C601A615960596130BC704723
:1065E00040660020A89F0500F8B5B0F8182144695E
:1065F000B0F81A31054608680E469B1A144407681D
:1066000095F81C119BB222463046B84750B3221869
:10661000944229D2766806E0052B32D023780BB35A
:106620001C44A24220D96378042BF5D1E378002BD7
:10663000F4D195F81C11013185F81C11002EEDD014
:1066400095F840110729E9D801F1480745F8276076
:10665000217295F84011013185F840111E462378CA
:10666000002BDDD10020F8BDB5F818216B6910446E
:1066700080B2A5F81801588095F81C211A710120E4
:10668000F8BD94F90230002B08DB95F81E31591C37
:1066900085F81E11A1780B43A370BFE795F81D3153
:1066A000591C85F81D11F5E72DE9F0472A4DDFF853
:1066B000B490DFF8B4A0AC4604468846BCE80F00AE
:1066C00088B003AF0FC703AE0FCE05F1140E2546F9
:1066D0000FC59EE80700DCF800303B806B4636684B
:1066E0002E8003C36B4603CB04F1180700234FF43D
:1066F000807E012640F2094CA06184F82020676169
:1067000040F2EF22154FE1610420C4F818914FF4D4
:10671000E131A4F81CE1C4F82C31C4F83031C4F8DC
:106720003431C4F83831C4F83C31C4F820C184F89D
:106730004001A28084F81E61A671C4F824A1C4F8A7
:1067400028710748FFF7FCFE404600F055FA304636
:1067500008B0BDE8F08700BFDC9F050018A0050069
:1067600040660020090000010CA005002DE9F04F53
:1067700005468BB0002900F0E480032930D090F862
:1067800040318B4240F2EE8001F14803774F50F8E0
:1067900023400021084605F5A276235C04EB000C9B
:1067A000B3B103F14002D2B2012A0BD9F42B09D8BC
:1067B0001A064CD44FF00108A3F55842B2F5006F09
:1067C00080F09A80013004EB000C235C002BE8D1B0
:1067D000CBB201335B0043F4407305F5A17C30E09C
:1067E00002A800F01DFA05F5A17C019010B3431E2C
:1067F000DBB205F5A37B5E4F0DF1080A0BEB830BB3
:10680000E64606AE97E80F001AF8018B86E80F00FF
:1068100008F00F090AACA14404EB181819F8109CF1
:1068200018F8103CAEF80490AEF802300EF1040EE9
:10683000DE45E7D1019B5B00DBB201335B0043F433
:106840004073A5F8423160460BB0BDE8F08F03F00D
:10685000E002C02A5ED003F0F002E02A7AD003F012
:10686000F802F02AAED103F007024FF004089CF8BA
:10687000013003F0C00EBEF1800FA3D19CF802E0FE
:106880000EF0C00903F03F03B9F1800F43EA821311
:1068900098D10EF03F0EB8F1030F4EEA831332D0B9
:1068A0009CF8032002F0C00CBCF1800F8AD102F0EA
:1068B0003F0242EA8313A3F58032BA4282D8A3F59D
:1068C000584CBCF5006FFFF47DAFB3F5803F00F18D
:1068D000040012D31E293FF77BAF4B004FEA922CE6
:1068E0003344C2F30902ACF5205CA2F5105226F83D
:1068F00011C05A80023150E7404420292FD026F899
:106900001130013149E7A3F50062B2F5784FFFF489
:1069100053AF57E79CF8012002F0C00CBCF1800F88
:1069200003F01F037FF44EAF02F03F0242EA8313ED
:10693000A3F18002B2F5F06FBFF444AF4FF002084C
:106940003AE7D0F82031A0F8443100F5A17C4FF4AB
:10695000417376E703F00F024FF0030887E740F238
:1069600042333AE74FF0000C6DE700BFFFFF0F0026
:10697000FC9F05000048704760660020014B586985
:10698000704700BF606600200A4601460148FFF7D5
:10699000EDBE00BF60660020024B186800B10069C0
:1069A000704700BFE467002030B40848BDF80850C5
:1069B000046844B1646934B10846A44611461A46D5
:1069C0002B4630BC6047002030BC7047E467002095
:1069D00030B40848BDF80850046844B1A46934B123
:1069E0000846A44611461A462B4630BC604730BCC8
:1069F000704700BFE467002000207047024B186812
:106A000008B190F850007047E86700202DE9F04782
:106A1000244C2468002C3FD04FEAC0091E4609EBE5
:106A2000000304EB83031746D3F818A088460546F5
:106A3000BAF1000F32D0504631F07EF94D4404EBEC
:106A40008504D4E90754DFF864C0174B08280246D0
:106A5000514628BF08224046002D08BF6546002C3D
:106A600008BF1C4630F029FA284631F065F9102895
:106A70000246294628BF1022384630F01EFA20462A
:106A800031F05AF9042802462146304628BF042234
:106A9000BDE8F04730F011BABDE8F087DFF810A08C
:106AA0000820CBE7E86700204CA005003CA00500CB
:106AB00030A00500F8B50B4F3B6883B1C5002E1818
:106AC00003EB8606044672691AB190473B6886F864
:106AD0002A002C4403EB840393F82A00F8BD1846DF
:106AE000F8BD00BFE8670020054B1B683BB100EB19
:106AF000C00003EB8003586A1B8D08601380704749
:106B0000E86700200A781E2A01D10020704710B5DE
:106B100020221C460521002300F030FF204610BD36
:106B200070B40A4C039A24685CB100EBC00504EB16
:106B30008504A4682CB10E4630461946234670BC25
:106B400018474FF0FF3070BC704700BFE867002067
:106B500070B40A4C039A24685CB100EBC00504EBE6
:106B60008504E4682CB10E4630461946234670BCB5
:106B700018474FF0FF3070BC704700BFE867002037
:106B8000054B1B6833B100EBC00003EB80031B69AE
:106B900003B11847704700BFE867002000B5114BEC
:106BA000402283B083F8272304F0B8F84FF08043E5
:106BB00002A80024D3F8385400F8084D20F0FCFE59
:106BC00002A8094B40F8043D20F046FF20F056FF94
:106BD000EB0702D401F06AFDFCE7204603F0E2FE79
:106BE000F8E700BF00E100E0ED6B020003F0DABE61
:106BF000002003F0D9BA00BF00B5002383B0032200
:106C0000CDE9002303490448C8221FF0B3FB03B0B9
:106C10005DF804FB50A005009D6B020021F072BCE2
:106C20004FF08052536E1BBA0360136E1BBA436061
:106C3000082070470048704758A0050070B51F4CE9
:106C40002368E3B1C9B91578C5F34115012D11D0F9
:106C5000022D16D15478012C25D0022C0DD1938809
:106C6000072B0ED1164C114623892246BDE87040F1
:106C700002F0CABC5178222905D0012070BD184607
:106C800070BD084670BD11465288003218BF0122FF
:106C90001A7602F0A1FC2268136A002BEDD0107E58
:106CA0009847284670BDDC6934B1114623782246E6
:106CB000BDE8704002F0A8BC204670BDEC67002023
:106CC0000460002010B5044601F052FC08B9002011
:106CD00010BD01F055FC0028F9D1044B4FF45A7255
:106CE00002FB0434207900F0010010BDF0670020A1
:106CF000064A4FF45A7303FB002050F8063F0B601E
:106D0000838882798A718B80704700BFF06700208A
:106D100008B5044A4FF45A7303FB0020103001F009
:106D20009FFA08BDF06700202DE9F0414FF45A7535
:106D300005FB00F5174E05F11004344492B22046CD
:106D400001F0B8FA0746204601F0A2FA3F2802D81F
:106D50003846BDE8F08106EB0508002098F80310DE
:106D600002F078FB0028F3D0204601F091FA3F288A
:106D700005D898F80310002002F09EFBE8E705F51F
:106D80003A72324498F803104023002002F0C0FB0E
:106D9000DEE700BFF0670020034A4FF45A7303FB9D
:106DA0000020103001F0F4BAF06700202DE9F8431C
:106DB0004FF45A7505FB00F5224E05F12C043444BE
:106DC00092B2204601F022FB0746204601F048FA25
:106DD0003F2802D83846BDE8F88301F0C9FB0028F7
:106DE000F8D001F0CDFB80460028F3D1204601F019
:106DF00037FA0028EED006EB0509404699F8021054
:106E000002F028FB0028E5D005F54A7535442046F8
:106E10002946402201F04EFA034668B12A4699F805
:106E20000210404602F074FB0028D3D1064B1B68C9
:106E3000DB07CFD500BECDE799F8021002F03CFB8E
:106E4000C8E700BFF0670020F0ED00E02DE9F04159
:106E5000054601F08DFB10B90020BDE8F08101F07E
:106E60008FFB06460028F7D14FF45A7404FB05F453
:106E7000174F04F12C053D44284601F0F1F9002894
:106E8000EAD007EB0408304698F8021002F0E2FA64
:106E90000028E1D004F54A742744284639464022A8
:106EA00001F008FA044668B13A4698F802103046F4
:106EB000234602F02DFB48B9064B1B68DB07CBD5F8
:106EC00000BECAE798F8021002F0F6FA2046C4E7BE
:106ED000F0670020F0ED00E008B5044A4FF45A7363
:106EE00003FB00202C3001F0D3F908BDF06700202F
:106EF000F0B51B4C83B000214FF45A722046012597
:106F00000E462FF0FEFFFF234FF4424204F14801EA
:106F10006371E2802B460827009604F110004FF4BD
:106F200080722773258101F05FF92B464FF4807240
:106F300004F5A471009504F12C0001F055F904F555
:106F4000127128461EF02CFC04F52671A06228461A
:106F500066621EF025FCC4E9100603B0F0BD00BF58
:106F6000F067002010B5094B002203F12C0403F157
:106F700010001A601A7101F0B3FA204601F0B0FA5D
:106F800020460121BDE8104001F0D2BAF067002090
:106F90002DE9F0414B79022B82B004D00025284620
:106FA00002B0BDE8F0818B79022BF7D1304EB37877
:106FB0002BB1304B1B68DB07F0D500BEEEE78B78BA
:106FC00033700C780C4407466378242B4FF0090586
:106FD0000BD1082A02D822E0AA4220D323781C44ED
:106FE0001D446378242BADB2F6D0052B2CD0042B96
:106FF00015D163790A2B12D11F4A94F800800192AF
:10700000022301320092384604EB08011A4602F0CE
:1070100031F90028CDD00E3518FA85F5ADB21748F4
:1070200001F036F93F28BAD9F178002002F012FABF
:107030000028B4D0114801F02BF93F28F17811D87D
:10704000002002F039FAAAE72146384602F0B8F9E2
:107050000028AED0A378737023781C441D44ADB2D1
:107060006378C4E7064A4023002002F051FA96E70D
:10707000F0670020F0ED00E0F267002000680020DB
:10708000D86A002038B5137803F06003202B01D0B4
:10709000002038BD254C938825789D42F8D153783F
:1070A000203B032BF4D8DFE803F0271E070281B34F
:1070B000022933D0012038BD59B30229FAD15588AD
:1070C0001B482571E94301F0010101F031FA194B28
:1070D000002BEFD0C5F3400205F001010020FFF7BF
:1070E0005BFA012038BD0029E4D111460723124A7A
:1070F00002F08AFA012038BD0029F6D00229D9D140
:107100000E4B002BD6D00C490020AFF3008001209D
:1071100038BD114602F060FA012038BD084B002B43
:10712000C8D051880020AFF30080C3E7F06700208B
:107130001C68002099650200F6670020000000002E
:10714000000000002DE9F047574CE2788A420D46D6
:1071500007461E4656D19AB204F53A7104F1100062
:1071600001F054F9514BD3B16379FF2B17D0B6B16D
:1071700004F2E72808EB060AA8F2D72902E0C24584
:107180000DD0637918F8012F9A42F8D1484601F0E2
:1071900077F80028F3D16179AFF30080EFE7444B33
:1071A00023B1444801F06CF800285DD0414801F05B
:1071B0006FF83F285BD8A3789D4203D0012528466D
:1071C000BDE8F0873C4B13B10020AFF3008001F025
:1071D000CFF920BB394801F043F80028EED1002E4A
:1071E000ECD016F03F06E9D1A178384602F032F92A
:1071F00005460028E2D0A17838463346324602F0F0
:1072000087F9DCE7A3788B42DCD02D4B1D6815F0A5
:107210000105D4D000BE00252846BDE8F08701F066
:10722000AFF905460028D5D1244801F019F8002807
:10723000D0D0A178284602F00DF90028CAD0214903
:107240004022A1F53F7001F035F8034638B32846D7
:107250001C4AA17802F05CF90028AFD1184B1B68DA
:10726000DB07B7D500BEB5E71AF09CFE9EE7E178D4
:10727000002002F0EFF800289DD00E4801F008F839
:107280003F2804D8E178002002F016F993E7402364
:107290000D4AE178002002F03BF9A3788CE7A17851
:1072A00002F00AF996E700BFF06700200000000036
:1072B000A51F040000680020000000001C680020DA
:1072C000F0ED00E0186B0020D86A00208C2200212D
:1072D00001482FF016BE00BF586B00208C22002101
:1072E00001482FF00EBE00BF586B00202DE9F04181
:1072F0004B79032B82B004D00024204602B0BDE8B5
:10730000F0810D79C5EBC5041234A4B2944205D9BD
:10731000234B1B68DA07EFD500BEEDE7214F97F846
:1073200001C0BCF1000FF3D191F800E001EB0E02B7
:10733000C7F8882092F80180B8F1210FE8D188467B
:1073400011F80E1007F1020C07F1010E1144CDE9FE
:1073500000CE2A46064601F08DFF0028D8D098F8C6
:107360000630B978012B04BF98F80730FB70012272
:10737000D7F888303A7198F80220B3F807303A709D
:10738000FB800029B9D030464023074A02F0C0F8FC
:107390000028B2D1024B1B68DB07AED500BEACE7BC
:1073A000F0ED00E0586B0020A06B00202DE9F041CB
:1073B000137803F01F04012C82B003D0002002B028
:1073C000BDE8F081DFF8C881968898F80070F6B2C1
:1073D000B742F3D113F0600305460F46164617D1A6
:1073E00000293BD15378062BE8D153881B0A212B67
:1073F00000F08C80222BE1D10846FFF7CDFAB8F8D7
:10740000063002463146284602F0FEF82046D6E70E
:10741000202BD3D15378013B0A2BCFD801A252F8AD
:1074200023F000BFCD740200BB740200517402004F
:10743000BD730200BD730200BD730200BD73020084
:10744000BD730200A57402007F7402006174020023
:1074500021B931460123454A02F0D6F80120AEE7B2
:10746000D1B10229FAD17188414BC9B288F8041010
:10747000002BF3D00020AFF3008001209FE700290C
:10748000ECD171883B4B090A88F8051023B13846C6
:10749000AFF30080002891D03146284602F09CF8D6
:1074A00001208CE700293DD1F388402B86D8314656
:1074B000314A02F0A9F8012081E70029CED13146F6
:1074C00001232E4A02F0A0F8012078E70029C5D157
:1074D0007388F08813F0FF014FEA132238D0012897
:1074E00036D90138264B88F8081080B20127009061
:1074F0000020FFF759FA3B189BB25BBB214A126888
:10750000D2077FF55BAF00BE184658E7D8F8882051
:10751000002A3FF453AF1378314602B0BDE8F04182
:1075200002F072B8022999D17388F08813F0FF0134
:107530004FEA132205D0012803D998F848308B422E
:107540000FD00D4B00900020FFF742FA012036E7E4
:107550000D4BCCE7314628460B4A02F055F8012086
:107560002DE7013880B2094BECE700BF5C6B0020CF
:107570000000000000000000A06B00205D6B0020F8
:10758000616B0020F0ED00E0606B0020A16B00203B
:10759000586B0020F0B51C4CA57866788D4283B0FE
:1075A0000BD1B54216D1194A22B1DAB218490020DE
:1075B000AFF30080012003B0F0BDB142F3D0154B12
:1075C0001B68DB0703D500BE002003B0F0BD002020
:1075D00003B0F0BD00229BB211460746009310464F
:1075E00004F14803FFF7F4F93846402304F1480258
:1075F000A17801F08DFF0028DCD1064B1B68DA076B
:10760000E5D500BED7E700BF586B002000000000A2
:10761000606B0020F0ED00E030B5154C83B0002128
:107620000D464FF41A7220462FF06BFC04F148010E
:1076300004F1100000950123802200F0D5FD012304
:10764000802204F1C801009504F12C0000F0CCFD6B
:1076500004F5A47101201EF0A3F804F5CC71A0621A
:10766000012065621EF09CF8C4E9100503B030BD2E
:10767000A0B8002010B5084C002304F11000C4E9A4
:107680000033C4E9023300F02BFF04F12C00BDE805
:10769000104000F025BF00BFA0B800202DE9F04742
:1076A0004B79012B03D000242046BDE8F0878B796D
:1076B000012BF8D1CB79002BF5D10B78CD1899B2ED
:1076C0006C78242C0BD1914202D9ECE78A42EAD3A0
:1076D0002B781D440B446C78242C99B2F6D0042CE2
:1076E000E1D16B79012BDED1AB79032BDBD1EB79C7
:1076F000002BD8D1DFF8BC8098F8013013B998F886
:10770000027017B100231B70FFDEAB7888F80030E1
:107710002E7892462A798B1981469CB22E4432B932
:107720001EE0337897421C44A4B21E4418D2A245EE
:1077300016D37378052BF4D13146484601F040FE4C
:1077400028B3B378DA0914BF88F8013088F802301A
:1077500033782A7901371C44FFB2A4B21E44E0E713
:10776000114800F095FD3F289ED998F8021000209E
:1077700001F070FE002897D00B4800F089FD3F28EB
:1077800098F802100AD8002001F096FE8CE7074B0B
:107790001B68DB0787D500BE044685E7044A402303
:1077A000002001F0B5FE7FE7B0B80020F0ED00E06A
:1077B00088BA0020A0B8002000207047F8B53D4CE2
:1077C000A2788A421F4613D19AB204F5F47104F1EB
:1077D000100000F01BFE384B13B10020AFF3008007
:1077E000364800F055FD3F282CD801252846F8BD25
:1077F00063788B4208D0324B1D6815F00105F5D037
:1078000000BE00252846F8BD064604F12C0000F015
:1078100027FD40BB2B4800F023FD0028E5D1002FB9
:10782000E3D017F03F07E0D16178304601F012FE57
:1078300005460028D9D0617830463B463A4601F0EB
:1078400067FED3E7A178002001F004FE054600287A
:10785000CBD01A4800F01CFD3F28A17820D800208A
:1078600001F02AFEC2E76178002001F0F3FD002854
:10787000D0D0402204F50A7104F12C0000F01AFD6A
:10788000034698B104F50A726178002001F040FEC9
:107890000028AAD10A4B1B68DB07BBD500BEB9E79D
:1078A000094A4023002001F033FE9FE7617801F090
:1078B00003FEAFE7A0B8002000000000B0B8002031
:1078C000F0ED00E0CCB8002088BA002070B5284C5C
:1078D000E28A52BA92B282B022B1A368B3FBF2F24A
:1078E00091B231B9234B1B68DB0700D500BE02B053
:1078F00070BDA66BD4F811109B1BB3F5007F28BF99
:107900004FF4007392B209BA00930546B6FBF2F346
:10791000607B02FB13621944174BFFF701F9031E4A
:1079200010DB94F82E1007D09BB22846124A01F0C3
:10793000EFFD0028D6D0DAE7009328461A4601F07A
:1079400065FCD4E7A26BA36894F82E109B1A284616
:1079500042F205020125A362002384F82C50A2877D
:1079600084F83E3002B0BDE8704001F00DBE00BFAB
:10797000E46D0020F0ED00E0E46B002010B4054C55
:10798000012084F83C1084F83D2084F83E305DF8F6
:10799000044B7047E46D00204022002101482FF085
:1079A000B0BA00BFE46D00204022002101482FF052
:1079B000A8BA00BFE46D00204B79082B01D000204D
:1079C00070478B79062BFAD1CB79502BF7D1162A39
:1079D00006D81B4B1B68D907F1D500BE00207047A5
:1079E00070B5184D8B7885F82D300B7882B005F185
:1079F0002F0205F12E0619440223CDE900261A466E
:107A0000044601F037FC48B90D4B1B68DA0702D574
:107A100000BE02B070BD002002B070BD20461F2322
:107A20002A4695F82F1001F073FD30B9044B1B68FE
:107A3000DB0702D500BE1720EBE71720E9E700BF00
:107A4000F0ED00E0E46D0020A1B90B46117801F0E3
:107A50006001202901D01846704730B55178FE29C1
:107A600085B009D0FF2920D1114601F0B5FD0120D4
:107A700005B030BD012070470D49044601208DF846
:107A80000F0039B10192FEF7B9FF019A0028EFD03B
:107A90000138C3B204AD114605F8013D20462A461F
:107AA000012301F0B1FD0120E2E71846E0E700BF45
:107AB000FD6902002DE9F043A74C94F83050012DE8
:107AC0008FB01F46064600F082802ED3032D06D0CD
:107AD000022D00F0998001200FB0BDE8F08394F8EA
:107AE0002E308B42F7D10D2FF5D1E37B282B00F000
:107AF0004F822A2B40F04282984B13B1607BFFF7F4
:107B00003FF8002084F830001F23934A94F82F1088
:107B1000304601F0FDFC002840F09980904B1B6836
:107B2000DB0740F19C8000BED6E794F82F508D42D1
:107B3000D1D1002A40F08E801F2B40F08B80894BE2
:107B40002168994240F08680E17B6368864FA2629B
:107B5000A26363620122A3682762282984F8302087
:107B6000636300F0DF812A2900F02C821BB1227BA5
:107B7000D20900F03482607B252900F27481DFE8AD
:107B800011F03F017201720148017201720172012C
:107B9000720172017201720172017201720172014D
:107BA0007201720172011C01720172017201720193
:107BB000720172017201F900D20072017201720148
:107BC00072017201720172019E0072017200237BC8
:107BD0005FEAD3180FD1E37B607B2A2B00F056813C
:107BE000A38E624A04F10F01FEF78CFF0028C0F259
:107BF000908184F82C80D4E90D231F449742A76319
:107C000019D3022384F8303094F82E10304601F056
:107C1000D5FC38B994F82F10304601F0CFFC00287D
:107C200000F06981002394F82F10009330461A4623
:107C300001F0ECFA4FE7E37B282B00F072812A2B4E
:107C400000F07381464B1B68DA0700D500BE94F83C
:107C500030503DE7424B1B68D90700D500BE0020DD
:107C60000FB0BDE8F08304AA05A9FEF73DFF059B10
:107C700023B1BDF81020002A40F0CF8194F83C30A9
:107C800023B940F2024284F83E30A28794F83C3097
:107C9000002001210222606384F82C1084F8302037
:107CA00023B942F2050284F83E30A287A368002B74
:107CB000AAD094F82E10304601F066FCC7E705AD57
:107CC00000230DF10E0204A96B600593AB60FEF773
:107CD0000BFF049A002AD1D0BDF80E30002BCDD076
:107CE00012BA5BBA08200221ADF81E3006928DF858
:107CF00017008DF81C1095E807001C4B83E807005F
:107D00000C230022636384F82C20A2689A42A1D33A
:107D10009BB2164A94F82E10304601F0F9FB002869
:107D20003FF4FCAE93E7124B002B6DD0E17CC1F326
:107D3000400301F001020909AFF30080002863D17C
:107D400094F83C30002BA1D140F202420023A287DC
:107D500084F83E309AE700BFE46D0020816B02009A
:107D6000F0ED00E05553424355534253E46B00207D
:107D7000000000009DF81630AC49002203F080039B
:107D800062F3C7138DF8163003238DF815208DF894
:107D900017208DF81430002900F03D81AFF30080EA
:107DA0009DF81630A24A80F0010060F3C7138DF8E9
:107DB0001630059B13600423A3E74FF02033022500
:107DC0000022CDE9052207A909AA08938027079375
:107DD00009930D93CDE90A330C938DF816500DAB32
:107DE0008DF8175005AD8DF81570FEF70FFE0FCD0D
:107DF0008F4F0FC70FCD0FC72B683B60242380E741
:107E0000FEF758FE00289BD00023636384F82C30D3
:107E1000F7E694F83C2094F83D0094F83E10844F27
:107E20004FF0000C4FF00003CDE905CCCDE907CCB5
:107E300062F303038DF81630F0220A23ADF824C054
:107E40008DF820008DF821108DF814208DF81B304E
:107E500005AD0FCD0FC72B683B80A4F83CC084F85C
:107E60003EC012234DE794F83C50002D7FF40EAF36
:107E70009BB26F4A6F49FEF745FE031EFFF606AF41
:107E8000636384F82C503FF4BCAE3EE7B4F816C0F0
:107E9000D4F81110A26BDFF89891A36800979CFAB0
:107EA0009CFC1FFA8CFC09BAB3FBFCF39BB2B2FB3F
:107EB000F3FC03FB1C2261444B46FEF749FE0028FD
:107EC0004DDB87427FF797AE0028A7EB000708DD60
:107ED000A36B09EB000103443A464846A3632EF026
:107EE000F7FF0023304694F82F1000933A4601F034
:107EF0008DF90120F0E5032384F83030304694F802
:107F00002E104D4A0D2301F003FB00283FF406AE6E
:107F1000E1E542F2050384F82C5084F83E80A38703
:107F200069E63046FFF7D2FC91E6404B2BB1607B0F
:107F3000AFF30080002833D0A76BA3683C4A94F8C5
:107F40002F10DB1BB3F5007F28BF4FF400739BB2EB
:107F5000304601F0DDFA00283FF474AE77E6A26BFC
:107F6000A36884F82C509B1A022142F2050284F87F
:107F70003E80A36284F83010A28745E62F4B002B89
:107F80003FF4BFAD04F10F01607BAFF30080B8E5B3
:107F90002B4B002B3FF4B5AD607BAFF30080B0E519
:107FA000A56884F83E00012242F2077394F82F106E
:107FB000A562304684F82C20A38701F0E5FA94F8F6
:107FC000305085E5194B1BB1607BAFF3008078B171
:107FD000A368A06B164A94F82F101B1AB2E79BB245
:107FE0002946134A01F094FA00283FF497AD2EE693
:107FF000A368A362012042F20772002384F82C00D8
:1080000094F82F10A287304684F83E3001F0BCFA75
:1080100094F830505CE50120C2E6013B04491BBAEC
:1080200012BAC1E9003208236BE600BF000000006D
:10803000E46B0020F36D0020046E002000000000BF
:108040000000000030B5154C83B000210D464FF400
:10805000EE7220462EF055FF04F13C01201D0095E4
:108060000123402200F0C0F80123402204F17C01EA
:10807000009504F1200000F0B7F804F1BC010120E4
:108080001DF08EFB04F58671E0610120A5611DF0F5
:1080900087FBC4E90D0503B030BD00BF246E00208E
:1080A00010B5064C2046002340F8043B00F018FAB7
:1080B00004F12000BDE8104000F012BA246E002048
:1080C000F0B54B79FF2B83B003D00024204603B0DA
:1080D000F0BD0C79C4EBC4040934A4B29442F4D8C2
:1080E000164F7B78002BF0D1BB78002BEDD10D46DD
:1080F0000978BA1C07F1010C0223CDE9002C2944B0
:108100001A46064601F0B6F830B90D4B1B68DA077F
:10811000DBD500BE0446D9E7AB783B70B978304672
:10812000402307F5AE7201F0F3F90028CED1044BDD
:108130001B68DB07CAD500BEC8E700BF246E00205D
:10814000F0ED00E038B5234CA5788D420AD0637875
:108150008B424FF0000004D101F008FA054600B34D
:10816000012038BD9AB204F5AE71201D00F04EF921
:10817000194B13B10020AFF30080A178002001F06B
:10818000F5F905460028EBD1144800F081F83F28A6
:10819000E6D9A178124A2846402301F0B9F9012016
:1081A00038BD402204F5CE7104F1200000F082F8C1
:1081B0000028D5D0034604F5CE722846617801F038
:1081C000A7F90028CCD1074B1B68DB07C8D500BE38
:1081D000C6E700BF246E002000000000286E0020CB
:1081E000806F0020F0ED00E02DE9F041B2F5004F86
:1081F0009DF8188030D8044640691E460F46154643
:1082000018B14FF0FF311DF071FDA06918B14FF0AA
:10821000FF311DF06BFD6A0092B260692760511E4C
:1082200000235242E381A580E68084F80880A18182
:108230006281238218B11A4619461DF0D7F8A06949
:1082400038B100231A4619461DF0D0F80120BDE8C8
:10825000F0810120BDE8F0810020BDE8F08100BF81
:10826000C189028A89B292B28B1A91429BB202D220
:1082700042899B1A9BB28088984228BF1846704753
:10828000C289038A9BB2981AB0FA80F040097047FD
:10829000C189028A89B292B28B1A914210B49BB200
:1082A000848802D240891B1A9BB2E01A80B25DF822
:1082B000044B70472DE9F843044680690E46174683
:1082C00018B14FF0FF311DF011FDE089218A80B215
:1082D00089B2451A8842ADB202D26389ED1AADB2B5
:1082E000A388AB420AD2C21A984292B245D261899F
:1082F000521A92B22282218A1D4689B2002D40D0A4
:10830000BD4228BF3D468B4203D8C91A89B28B4271
:10831000FBD95B1AB4F8068022689FB2BD4208FB05
:10832000012124D917FB08F91FFA89F94A4630467A
:108330002EF0C3FDEA1B12FB08F206EB090092B215
:1083400021682EF0BAFD228A92B253199BB29A424A
:1083500019D9628913449BB2A069238220B10023FA
:108360001A4619461DF042F82846BDE8F88308FB76
:1083700005F230462EF0A1FDE5E7A1899142B9D280
:10838000B5E7238A9BB2A2899A42E5D2E1E700BF12
:1083900070B5054680690E4618B14FF0FF311DF0EB
:1083A000A5FCEC892B8AA4B29BB2E01A9C4280B255
:1083B00002D26A89801A80B2AA88824208D2A11A9F
:1083C000944289B21CD26889091A89B2298210465E
:1083D000D0B1934203D39B1A9BB29A42FBD9EA884D
:1083E0002968304602FB03112EF067FD0124A869BD
:1083F00020B100231A4619461CF0F8FF204670BD34
:10840000A8898842E2D2DEE70446F0E72DE9F0478A
:10841000154612B92846BDE8F087044640690F4664
:1084200018B14FF0FF311DF061FCE689227A218AF4
:10843000A388B4F80680B6B289B282B39D4204D351
:10844000ED1A08FB05770E461D469E42304603D3C3
:10845000C01A80B29842FBD21B1A22681FFA83F915
:108460004D4508FB002027D808FB05F239462EF0C1
:1084700024FDAB199BB29E4202D8A2899A4202D235
:10848000628913449BB26069E3810028C2D0002353
:108490001A4619461CF0AAFF2846BDE8F087721A52
:1084A0008E4292B202D26189521A92B29A1A92B252
:1084B000954228BF1546C8E719FB08FA1FFA8AFA41
:1084C000524639462EF0F9FCA5EB090212FB08F2E0
:1084D00007EB0A0192B220682EF0EFFCC9E700BF5B
:1084E00010B50446406918B14FF0FF311DF0FEFB96
:1084F000A06918B14FF0FF311DF0F8FBA388606947
:108500005B009BB2591E5A420023E381A181628124
:10851000238218B11A4619461CF068FFA06920B1E1
:1085200000231A4619461CF061FF012010BD00BF50
:1085300038B5044640690D4618B14FF0FF311DF0C3
:10854000D5FBA06918B14FF0FF311DF0CFFB60697A
:10855000257220B100231A4619461CF047FFA06976
:1085600020B100231A4619461CF040FF012038BDF7
:10857000024B5878003018BF012070475870002017
:10858000024B1878C0F38000704700BF587000207D
:10859000014B1878704700BF8F7000202DE9F04321
:1085A000374D2C7883B01CB1204603B0BDE8F08372
:1085B00037222146064633482EF0A3FC32490120DB
:1085C0001DF0EEF8314B1860002832D030490B46D0
:1085D0004A6833F8080B498800941CF063FE2D4B61
:1085E000186030B32C4B6BB32C4FDFF8B880DFF83A
:1085F000B8903846AFF300803B78C8F800000DE033
:10860000D8F8003004EB440203EBC2031B68984720
:108610003B780134E4B21A1DA24225DBA342EFD815
:10862000E31ADBB2042B1CD803EB430309EBC303AF
:10863000ECE71B4B1B68DB07B6D500BE204603B03A
:10864000BDE8F083DFF86080144F012458F8183B30
:1086500098473A780432A24204F1010404DB062C64
:10866000F4D100231B68FFDE304601F0D7F9304615
:1086700001F0D6F9012420462C7003B0BDE8F08348
:108680008F7000205870002008700020907000202B
:10869000B8600020947000200000000004700020EA
:1086A000F0ED00E00070002094A005002DE9F04FEF
:1086B0008BB002F041FB002800F0CE81BB4DDFF80B
:1086C0000893DFF808A3DFF808B328684FF0FF32FB
:1086D00007A91DF079F9002800F0BE819DF81D3032
:1086E000013B072B00F2AC81DFE813F02801F10019
:1086F000BE00B300AC0040000E000800089B002B39
:10870000E3D009989847E0E79DF82010A84B01F0C6
:108710007F0403EB440303EBD11393F825006FF3BD
:10872000000083F8250093F825006FF3820083F89A
:108730002500002C00F0C0819E4ADB7C002A00F05E
:10874000B4819D4A1278934280F0AD81DBF800201D
:1087500003EB430312EBC30300F079811C699DF81E
:108760002120099B9DF81C00A047AEE7904C9DF886
:108770001C80237843F00103237094F825306FF3B5
:10878000000384F8253094F825306FF3820384F8D1
:10879000253094F826306FF3000384F8263094F8DF
:1087A00026306FF3820384F82630002000F096FF15
:1087B0009DF8203003F06002602A00F05E81402ABC
:1087C00000F0628103F01F03012B00F0B981C0F0BB
:1087D0009781022B40F051819DF8241001F07F0613
:1087E000082E00F24A817600C809A31903440090BC
:1087F0007048DF7C002800F0E2816F4B1B789F42BD
:1088000080F0DB81DBF8003007EB470703EBC7079D
:10881000002A00F0DB8157B1F86800F05FFFFB68C9
:10882000404608AA0021984700287FF44EAF9DF8E3
:108830001C00002101F086FC80219DF81C0001F045
:1088400081FC42E75D4B002B3FF43FAFAFF300806C
:108850003BE75B4B002B3FF438AF554B1878C0F328
:10886000C000AFF3008030E7534C524A2378002A0F
:1088700000F0C48000269E42194614D2DBF8003076
:1088800006EB460203EBC2035B69C3B19DF81C0013
:10889000984721780136F6B20B1D9E423FF715AF7F
:1088A0000B469E42EAD3F31ADBB2042B00F2B980E6
:1088B00003EB43030AEBC3035B69002BE6D10136EC
:1088C000F6B20B1DB342FFF600AF0B46E9E73722C5
:1088D000002137489DF81C60374C2EF012FB394AB6
:1088E0004FF0FF3353619361D3611384136053607E
:1088F0009360D360136100F0E7FE2E4A2378002ACC
:1089000068D000270FE0DBF8003007EB470203EBED
:10891000C2035B683046984723780137FFB21A1DBF
:10892000BA42C0F286809F42EDD3FB1ADBB2042B21
:1089300061D803EB43030AEBC303EAE737220021C4
:108940001B489DF81C601C4C2EF0DBFA1D4A4FF0B2
:10895000FF3353619361D361138413605360936059
:10896000D360136100F0B0FE124A2378002A00F0B1
:10897000AB8000270EE0DBF8003007EB470203EB8B
:10898000C2035B683046984723780137FFB21A1D4F
:10899000BA4249DB9F42EED3FB1ADBB2042B2AD842
:1089A00003EB43030AEBC303EBE700BF9470002023
:1089B000587000200000000004700020000000003B
:1089C000000000005B700020F0ED00E094A00500C6
:1089D00000700020DFF81C830127D8F804303046EF
:1089E0009847237804339F4208F1180807F10107DC
:1089F0001FDC062FF1D100235B68FFDEBD4F01268F
:108A00007A69002A74D09DF81C0090472378191DBC
:108A10008E4207F1180706F101063FF756AE062E03
:108A2000EED100235B69FFDEB34B9DF820209A70E6
:108A30004BE6B24B002B3FF448AEAFF3008044E668
:108A4000D9F80030DA077FF540AE00BE3DE6AC4B0A
:108A50001B68D90700D500BE0BB0BDE8F08F501ED3
:108A6000C0B2FDF78BFF18B14378022B00F00F82E4
:108A7000D9F80030DB0700D500BED9F80030D807A0
:108A80007FF5D5AE00BED2E69E4800283FF4CFAEBB
:108A900000F024FE404608AA0021FEF7CFF8002887
:108AA0007FF413AEC3E69B1ADBB2042BCFD803EBE3
:108AB00043030AEBC30351E6099B9DF821209DF86F
:108AC0001C0000F021FE00E6DFF828820127D8F81C
:108AD000043030469847237804339F4208F1180841
:108AE00007F10107A0DC062FF1D100235B68FFDE50
:108AF0001A1D964207F1180706F101068FDDE4E51D
:108B0000202A00F05981002AB7D19DF82130092B85
:108B1000B3D801A252F823F0118D0200D78C0200C5
:108B20007B8A0200318D02007B8A0200BD8C02002C
:108B30006B8C02007B8A0200578C0200378C02008B
:108B40009DF824300F2B3FF672AE23446E4ADB783B
:108B50005AB36E4A1278934225D2DBF8004003EBF9
:108B6000430314EBC3043FF462AEE06800F0B6FDCB
:108B7000E36808AA00214046984700287FF4A5AD85
:108B80009DF8203013F060037FF451AE9DF8212052
:108B90000A2A00F073810B2A7FF449AE08A94046E7
:108BA00000F01AFD91E59B1ADBB2042B3FF63FAEB5
:108BB00003EB43030AEBC304D7E7FF1AFFB2042F0A
:108BC00040F21C81002A7FF432AE17469DF8212026
:108BD000012A04D0C0F01A81032A7FF44EAFBDF8F9
:108BE0002230A3B9012A00F02381404601F0AAFAFD
:108BF000009AA319134493F8252042F0020283F847
:108C0000252093F8252042F0010283F82520002F2B
:108C10003FF45BADF86800F061FDFB6808AA002135
:108C200040469847002000F059FD94F82630DC07B4
:108C30003FF54BADB2E763789DF82220049213B95B
:108C4000002A7FF40CAF9DF810306370404608A9ED
:108C500000F0C2FC39E50AAA637802F80E3D4046EE
:108C6000012308A900F0D0FC2FE5BDF82200030A7B
:108C7000013BC0B20E2B3FF6DAAD01A252F823F051
:108C80008D8D02006F8D02004D8D02002F88020035
:108C90002F880200A58D02002F8802002F88020075
:108CA0002F8802002F8802002F8802002F880200E0
:108CB0002F8802002F8802005B8E020008A800F0B7
:108CC00013FD40469DF8221000F0B0FE237843F0DB
:108CD00002032370F9E4BDF82230012B7FF4A7AD25
:108CE000237840466FF3C30308A9237000F074FC97
:108CF000EBE400BF94A005005870002000000000C5
:108D0000F0ED00E03D6C0200000000000470002067
:108D10002378990801F00201C3F340130AAA0B4318
:108D200022F80E3D4046022308A900F06DFCCCE479
:108D3000BDF82230012B7FF47AAD2378404643F012
:108D4000080308A9237000F047FCBEE4BDF8241016
:108D5000FDF71AFE024600283FF469AD404613783D
:108D600008A900F051FC00287FF4AFAC5FE5FDF7E7
:108D700005FE024600283FF480AE4046538808A90D
:108D800000F042FC00287FF4A0AC50E5FDF7F2FDB6
:108D90001223024608A9404600F036FC00287FF462
:108DA00094AC44E59B4B002B3FF441ADAFF3008006
:108DB00002460028D2D160E69DF824300F2B3FF602
:108DC00036AD2344944ADB782AB1944A1278934210
:108DD00025D39B1ADBB2042B3FF629AD03EB4303EB
:108DE0000AEBC304E06800F079FCE368404608AA97
:108DF0000021984700287FF468AC18E507EB470787
:108E00000AEBC707002A7FF407ADDFE6009AA31933
:108E1000134420330AAA5B79C3F3400380E7DBF8ED
:108E2000004003EB430314EBC3043FF400ADD9E768
:108E30004046019301F0A0F9009BA2191A44019B3E
:108E400092F8251063F3410182F8251092F825105D
:108E500063F3000182F82510D9E6714B002B3FF433
:108E6000E6ACFDF7E7FE034602465B88404608A9EC
:108E700000F0CAFB00287FF428ACD8E40AAA08A9AD
:108E800002F80E3D4046012300F0BEFB1DE4C2790E
:108E90002378511161F30413921162F34513237087
:108EA000438800F10907C3189F42059380F09B8017
:108EB000CDF80C807A780B2A4FD000230093042A37
:108EC0007FF4D6AD059B544ADB1B9BB20193534BF9
:108ED0001B7822B34FF00008464615E0DBF800305F
:108EE00006EB460203EBC2039B68019A03983946DE
:108EF0009847002837D1494B1B780136F6B21A1D26
:108F0000B242B046FFF6B4ADB342E7D8F31ADBB2D3
:108F1000042B1FD803EB43030AEBC303E4E7414BE5
:108F20000293904611E0029B019A9B680398394690
:108F30009847C0B93949029A0B7808F101080433FF
:108F4000183243450292FFF693ADB8F1050F5FFA70
:108F500088F6E8D100239B68FFDE3B7800973B440E
:108F60001F465A78ABE7082803467FF681AD019A81
:108F70008242FFF47DADBA78A118C878FF287FF44B
:108F800077AD0098CE70B0B1817891427FF470AD2A
:108F900000797A7990427FF46BAD009AD278012AF9
:108FA00009D9023A0431D2B2601801323146009335
:108FB0002DF0A7FF009B394600224878052819D0DC
:108FC0000878024492B29A420144F6D3134A1278C6
:108FD000043290451F443FF74BAD059BBB423FF623
:108FE00069AFDDF80C80104B002B3FF42CAEAFF3D3
:108FF000008028E691F802C00CF07F0004EB4000EE
:1090000000EBDC10C6740878024492B2934201442B
:10901000D3D8DBE70000000000000000047000204F
:10902000356C020094A005000000000030B589B046
:1090300000248D1E8DF809108DF80800CDF80E4023
:10904000CDF80A40ADF81240032D65D8DFE805F0F1
:10905000264408023B4B1978C90762D409B030BDD9
:10906000384B1978C807F9D51978374841F0040109
:109070001970006842B3002305AA02A91CF0FEFB88
:10908000059B002BEAD0314B4FF080525A6040BF15
:10909000BFF34F8FBFF36F8F09B030BD29490B78F5
:1090A000DC07DBD50B7828486FF300030B700C78D6
:1090B00000686FF3410400230C704B700C7863F36D
:1090C00082040C70002AD7D1134602A94FF0FF3258
:1090D0001CF08CF909B030BD1A490B785B07BDD57F
:1090E0000B788DF8140018466FF38200164C087048
:1090F00000230521CDF81A30CDF81630ADF81E301A
:1091000020688DF81510AAB101AA05A91CF0B6FBBC
:10911000019B002BA2D0B6E70B4B1868002AAAD1FE
:10912000D2E7197808486FF3820119700068002AA5
:10913000A1D1C9E7134605A94FF0FF321CF056F93B
:109140008CE700BF587000209470002000ED00E014
:1091500030B5154D85B0002301248DF80400CDF8FD
:109160000630CDF80A308DF80810ADF80E302868BA
:109170008DF8054082B16A4601A91CF07FFB009B77
:1091800043B10A4B4FF080525A6040BFBFF34F8F3C
:10919000BFF36F8F05B030BD134601A94FF0FF320A
:1091A0001CF024F9F6E700BF9470002000ED00E009
:1091B00030B50B4685B049688DF804001868114D2C
:1091C00002AC03C4002306212868ADF806308DF8F0
:1091D000051082B16A4601A91CF050FB009B43B107
:1091E000094B4FF080525A6040BFBFF34F8FBFF31F
:1091F0006F8F05B030BD134601A94FF0FF321CF050
:10920000F5F8F6E79470002000ED00E070B584B04A
:10921000164E9DF82040039207250022CDF8062027
:109220008DF80400ADF80A208DF808108DF809308B
:1092300030688DF805508CB1134601A96A461CF0C0
:109240001DFB009B43B10A4B4FF080525A6040BF58
:10925000BFF34F8FBFF36F8F04B070BD23464FF045
:10926000FF3201A91CF0C2F8F6E700BF947000209D
:1092700000ED00E02DE9F84FDDF828B0002A6FD0AE
:1092800017464A78052A0C464CD1CE7806F00306DC
:10929000B34247D18B7803F07F03082B3DD84B793D
:1092A0000979DFF8C88003F00703814641EA03210A
:1092B000002540F2FF3A022E47D03CD8012E31D192
:1092C00098F80230022B0CBF4FF4806353468B4258
:1092D00023D32146484600F0BBFB18B3A378DA0934
:1092E00016BF0B9A8BF80030137023780135BD42FE
:1092F0001C4435D06378052B14D1E37803F00303C5
:10930000B3420FD1A3786179207903F07F0301F094
:109310000701082B40EA0121CDD9134B1B68DA075E
:1093200000D500BE104B1B68DB0702D40020BDE84F
:10933000F88F00BEFAE798F80230022B0CBF4FF40A
:10934000806340238B42C4D2E7E798F80230022BB7
:1093500002D04029BDD9E0E7B1F5007FDDD1B8E703
:109360000120BDE8F88F00BFF0ED00E0587000204C
:1093700030B5114D85B0002308240290019303916C
:1093800028688DF8054082B16A4601A91CF076FA7A
:10939000009B43B1094B4FF080525A6040BFBFF36E
:1093A0004F8FBFF36F8F05B030BD134601A94FF04B
:1093B000FF321CF01BF8F6E79470002000ED00E08F
:1093C0008B7803F07F03082B06D9204B1B68DA0744
:1093D00000D500BE00207047CB784A7910B403F066
:1093E00003030C7902F00702022B44EA022215D093
:1093F0001ED8012B0ED1164B9C78022C40F2FF3365
:1094000008BF4FF4806393420ED2104B1B68DB07FA
:1094100000D500BE00205DF8044B70470C4B9B78D4
:10942000022B0FD0402AF0D85DF8044B00F010BB9F
:10943000074B9B78022B0CBF4FF480634023934271
:10944000F2D2E2E7B2F5007FDFD1EDE7F0ED00E028
:109450005870002070B5164C01F07F0304EB4304F4
:1094600004EBD1142034607910F0010504D1637944
:10947000590704D5284670BD0025284670BD0D4EFD
:109480004FF0FF3130681CF031FC6379DA0707D404
:1094900063795B0704D4637943F0040363710125A6
:1094A000002330681A4619461BF0A0FF284670BDFD
:1094B000587000209070002038B5134D0C46286875
:1094C0004FF0FF311CF012FC104904F07F0301EB58
:1094D000430101EBD41120314B7913F0010310D17A
:1094E0004C79C4F3800424B14A7963F382024A714F
:1094F0000124002328681A4619461BF077FF2046EE
:1095000038BD0024F5E700BF90700020587000209F
:1095100070B5144C01F07F0604EB460404EBD11443
:1095200020346579ED0706D50F4B1B68DA0700D5A7
:1095300000BE002070BD657945F00105657100F041
:1095400015FB0028F6D16379074A60F300036371C5
:10955000637960F3820363711368DB07E9D500BEAA
:1095600070BD00BF58700020F0ED00E0054B01F029
:109570007F0203EB420303EBD11191F8250000F0C9
:10958000010070475870002010B50C4600F0DAFD5D
:10959000094904F07F0301EB430101EBD41191F879
:1095A000253043F0020381F8253091F8253043F04F
:1095B000010381F8253010BD58700020054B01F0E3
:1095C0007F0203EB420303EBD11191F82500C0F3B6
:1095D00040007047587000200A4630B4094C496872
:1095E00005461068234603C30023C4E9023392F9F9
:1095F00000209A422846ACBF802119461A4630BC4A
:10960000FFF786BF58710020F0B50E462B4C496815
:1096100007463068A260254603C50021E181F58830
:10962000AB4228BF2B4683B0A381ADB13BB3002A28
:109630003DD094F90000402B28BF402300282CDBAC
:109640001F4A3846FFF764FF98B91E4B1B68DB07BB
:1096500012D500BE03B0F0BD96F90030002BACBFB0
:109660008021002138462B462A46FFF751FF00286B
:10967000EBD0012003B0F0BD002003B0F0BD94F9A1
:109680000020002AACBF194680211A463846FFF751
:109690003FFF0028D9D00120ECE71146084801938C
:1096A0001A462DF00AFC064A019B8021EEE7054B85
:1096B0001B68D907E0D500BE1046CBE758710020E3
:1096C0006C710020F0ED00E0034B0022C3E90022A2
:1096D000C3E902221A61704758710020014B1861DA
:1096E000704700BF587100200346064A5968006859
:1096F00010B41346002403C3C2E902445DF8044BCE
:10970000704700BF5871002070B5424C2278C909DB
:10971000B1EBD21F82B0064616D033B13E4B1B6868
:10972000DA0743D4002002B070BD3C4B13B1214690
:10973000AFF300802369002B42D03046354A022126
:109740009847012002B070BD94F90020A068002A5B
:1097500008DB0028E6D01A46314901932DF0ADFB15
:10976000A068019BE589E2881D44ADB21844AA4275
:10977000A060E58101D03F2B25D8236923B1254A7C
:1097800001213046984798B194F9002000239A426D
:10979000ACBF8021194630461A46FFF7B9FE78B9AA
:1097A0001D4B1B68DB07BDD500BEBCE700BEB9E79B
:1097B0000146304600F0C6FC3046802100F0C2FC75
:1097C000012002B070BDA28994F90010531B9BB216
:1097D000402B28BF402300290ADB95424FF00001AF
:1097E00012D00F4A3046FFF793FE0028D8D0E7E7A3
:1097F00095420BD001461A46094801932DF05DFBB6
:109800008021074A019BEDE70A46EBE78021002211
:10981000E8E700BF58710020F0ED00E00000000014
:109820006C71002042DF704743DF704744DF7047B0
:1098300012DF7047F0B5354D95F8D830002B48D081
:10984000334B5B68C3F30803002B58D1EFF310834D
:10985000002B4BD095F8D830DBB32E4CD4F82C210C
:10986000D4F850C1D4F80861D4F83011D4F80C31D0
:10987000D4F83471624432440A44D4F810611A4472
:109880003A44D4F83831D4F81411D4F83CE1D4F87F
:109890001871324413445A18D4F84061D4F81C119A
:1098A000D4F844C102EB0E033B443344D4F8207196
:1098B000D4F848610B446344D4F82411D4F84C2103
:1098C0003B4433440B44134495F8D820DBB29A420E
:1098D000C4D895F8D8300133DBB2012285F8D830EE
:1098E0000260BFF36F8FBFF34F8FF0BD0A4B5B6811
:1098F0001B06AFD595F8D830002BFBD1E9E7014620
:1099000001220648BDE8F040FFF732BDAC710020EF
:1099100000ED00E00070024000E100E03598020038
:10992000F8B5394C94F8D830002B48D0374B5B68E9
:10993000C3F30803002B61D1EFF31083002B54D045
:1099400094F8D830DBB3324DD5F82C21D5F850C17E
:10995000D5F80861D5F83011D5F80C31D5F8347147
:10996000624432440A44D5F810611A443A44D5F8A6
:109970003831D5F81411D5F83CE1D5F818713244D6
:1099800013445A18D5F84061D5F81C11D5F844C1D4
:1099900002EB0E033B443344D5F82071D5F84861FF
:1099A0000B446344D5F82411D5F84C213B4433448F
:1099B0000B44134494F8D820DBB29A42C4D894F8EC
:1099C000D8300133DBB2012284F8D8300260BFF313
:1099D0006F8FBFF34F8F94F8D8302BB194F8D830F5
:1099E000013BDBB284F8D830F8BD0A4B5B681B063C
:1099F000A6D594F8D830002BFBD1E0E70146012230
:109A00000548FFF7B5FCE6E7AC71002000ED00E08B
:109A10000070024000E100E035980200704700BF8E
:109A2000014B80225A60704700E100E0074BD3F8F9
:109A30000014D3F8002400200A434FF48001C3F837
:109A40000024C3F85801C3F80413704700700240A3
:109A5000F0B48A784D790C79C878404E02F07F01D5
:109A6000D209570001EB41031744DB0003EB8703E6
:109A7000334405F0070500F0030044EA05240128FB
:109A80001C8124D0012303FA01F482B1344A02314B
:109A90008B40C2F80433D2F810352343C2F8103596
:109AA000BFF36F8FBFF34F8F0120F0BC70472C487E
:109AB00001F10C05AB40C0F80433D0F8143501F5C2
:109AC00094712343C0F8143540F82120E8E70829B1
:109AD00008D0244B186810F00100E6D000BE00202A
:109AE000F0BC7047EAB9B6F8D4301BB11C4B8022E9
:109AF000C3F81C251A4A0023C2F85031D2F80033AB
:109B000013F4001308BFC2F85431154B4FF4401240
:109B1000C3F80423D3F8142542F48072C3F8142543
:109B2000BEE7B6F8C8200E4B0021C3F82C1112B1C5
:109B30008022C3F81C250A4AD2F8003313F400131C
:109B400008BFC2F85431064B074AC3F80423D3F8C0
:109B5000102542F48072C3F81025A1E7AC710020F3
:109B600000700240F0ED00E0000820002DE9F04117
:109B700001F07F064FEAD11C77000D46B8194FEA75
:109B80004C01C94CC000614400EB810104EB010EA3
:109B90006250002282B0AEF80430AEF80620002EEB
:109BA00040F08480002B40F08D80C04BD3F880348F
:109BB000C3F3C0139C4500F0858094F8D830002B87
:109BC0004CD0BB4B5B68C3F30803002B40F0128200
:109BD000EFF3108323B9B74B5B681E0600F1F280E8
:109BE00094F8D830D3B3B14AD2F82C31D2F850110E
:109BF000D2F808010B44D2F830110344D2F80C011A
:109C00000B44D2F834110344D2F810010B44D2F8BB
:109C100038110344D2F814010B44D2F83C11034428
:109C2000D2F818010B44D2F840110344D2F81C01B9
:109C30000B44D2F844110344D2F820010B44D2F86B
:109C400048110344D2F824010B44D2F84C110344C8
:109C50000B4494F8D810DBB29942C5D894F8D830A8
:109C6000954A0133DBB2012184F8D8301160BFF38B
:109C70006F8FBFF34F8F94F8D8302BB194F8D83052
:109C8000013BDBB284F8D830894B5A68C2F3080232
:109C9000003218BF012200230092184629461A46B6
:109CA000FFF7B4FA012002B0BDE8F081BCF1000F6B
:109CB0000CD123189A7A002A40F00481012002B0C6
:109CC000BDE8F081BCF1000F00F08680374404EB62
:109CD000C70706EB8602788A3B8AB98A774D1B1A3A
:109CE00092009BB202F1804202F51C328B4228BFE7
:109CF0000B46F968C2F80016C2F8043694F8D8206A
:109D00000B4430B2FB6005EB8001002A49D0684B60
:109D10005B68C3F30803002B40F0EB81EFF3108383
:109D2000002B00F0E88094F8D830D3B35F4AD2F823
:109D30002C31D2F85011D2F808610B44D2F830110E
:109D40003344D2F80C610B44D2F834113344D2F8C6
:109D500010610B44D2F838113344D2F814610B442B
:109D6000D2F83C113344D2F818610B44D2F84011B8
:109D70003344D2F81C610B44D2F844113344D2F876
:109D800020610B44D2F848113344D2F824610B44CB
:109D9000D2F84C1133440B4494F8D810DBB29942FA
:109DA000C5D894F8D8300133DBB2012284F8D8301A
:109DB00045F82020BFF36F8FBFF34F8F012002B013
:109DC000BDE8F08194F8D830002B3FF447AF94F809
:109DD000D830002BF6D141E794F8D830002B49D089
:109DE000334B5B68C3F30803002B40F08A81EFF329
:109DF0001083002B00F0898094F8D830D3B32B4A1D
:109E0000D2F82C31D2F85001D2F80811D2F83051E2
:109E100003440B44D2F80C11D2F834012B440B4408
:109E2000D2F81011D2F8385103440B44D2F814116F
:109E3000D2F83C012B440B44D2F81811D2F840510F
:109E400003440B44D2F81C11D2F844012B440B44B8
:109E5000D2F82011D2F8485103440B44D2F824011F
:109E6000D2F84C112B4403440B4494F8D810DBB2C5
:109E70009942C5D894F8D830114A0133DBB2012198
:109E800084F8D8301160BFF36F8FBFF34F8F94F811
:109E9000D830002B3FF412AF94F8D830013BDBB23E
:109EA00084F8D8300AE700BFAC710020007002408F
:109EB00000ED00E000E100E050700240047002405C
:109EC0004C700240082E83F80AC040F09980954BF0
:109ED000D3F8C08418F4803F21D06546E046B81915
:109EE000C00022182358B2F806C065444344ADB2FE
:109EF0002350D580E2E68C4B5B681B067FF513AFE1
:109F000094F8D830002BFBD14BE7874B5B681806E1
:109F10007FF572AF94F8D830002BFBD1AAE7D4F8C4
:109F2000C020C3F8A027C3F8A48794F8D8301FFA3C
:109F300088F5002B4BD07D4B5B68C3F30803002BE7
:109F400040F0EA80EFF310831BB9774B5B6819068A
:109F50004BD494F8D830D3B3724AD2F82C31D2F81B
:109F60005011D2F808010B44D2F830110344D2F852
:109F70000C010B44D2F834110344D2F810010B4405
:109F8000D2F838110344D2F814010B44D2F83C1132
:109F90000344D2F818010B44D2F840110344D2F81C
:109FA0001C010B44D2F844110344D2F820010B44A5
:109FB000D2F848110344D2F824010B44D2F84C11D2
:109FC00003440B4494F8D810DBB29942C5D894F8F6
:109FD000D830574A0133DBB2012184F8D830116000
:109FE000BFF36F8FBFF34F8F79E794F8D830002B12
:109FF000FBD1ECE701224F494F48FFF7B9F93AE6A8
:10A00000484A25584D4806F5947106EB860352F8E8
:10A01000211002EB83035FFA81F8C3F80057C3F8FD
:10A02000048794F8D8300FFA86FC00EB8C01002BE3
:10A0300064D03E4B5B68C3F308031FFA88F5002B1E
:10A0400065D1EFF310831BB9374B5B681A064BD40D
:10A0500094F8D830D3B3334AD2F82C31D2F8501117
:10A06000D2F808E10B44D2F830117344D2F80CE175
:10A070000B44D2F834117344D2F810E10B44D2F8F7
:10A0800038117344D2F814E10B44D2F83C117344F4
:10A09000D2F818E10B44D2F840117344D2F81CE115
:10A0A0000B44D2F844117344D2F820E10B44D2F8A7
:10A0B00048117344D2F824E10B44D2F84C11734494
:10A0C0000B4494F8D810DBB29942C5D894F8D83034
:10A0D0000133DBB2012284F8D83040F82C20BFF3E2
:10A0E0006F8FBFF34F8FFAE694F8D830002BFBD177
:10A0F000ECE701221048FFF73BF9DFE51FFA88F58E
:10A10000E4E701220E490C48FFF732F9BFE60122CD
:10A110000948FFF72DF9E2E6012205490648FFF755
:10A1200027F9DCE60070024000E100E000ED00E00D
:10A13000487002405070024035980200287002407A
:10A140004C70024011F07F030BD0082B04D0094B58
:10A1500041F48071C3F81815BFF36F8FBFF34F8FB1
:10A160007047044B01225A65BFF36F8FBFF34F8FC7
:10A17000704700BF0070024011F0770F10D0094AFD
:10A1800041F48073C2F81815C2F80C35CB0904BF2E
:10A1900001F5947142F82130BFF36F8FBFF34F8FF9
:10A1A000704700BF007002402DE9F04F814B824C98
:10A1B000D3F80003002387B01D461F46012620FA6E
:10A1C00003F11A19C9074FEA820209D5116839B19A
:10A1D00006FA03F117600D43BFF36F8FBFF34F8F84
:10A1E0000133192BEBD1EA0700F14482734F2B05A1
:10A1F00008D5704BD3F8A83601229BB2A7F8D2300D
:10A2000087F8D720AE0214D56A4BD3F81425D405AD
:10A2100000F18B82D3F81025D00540F1718297F8B8
:10A22000D730002B40F0AE82012203210020FEF740
:10A23000FDFE68021FD55F4BD3F8004404F4E062D2
:10A24000E105C3F8002400F16582620510D5594B81
:10A250000122C3F808259A65D3F8002312F40012EE
:10A2600008BFC3F85421534B4FF40012C3F8042322
:10A27000A30500F172822E022BD54E4BD3F8802419
:10A28000D2B28DF81020D3F88414C9B28DF8111011
:10A29000D3F888048DF81200D3F88C048DF81300DD
:10A2A000D3F890048DF81400D3F894048DF81500B9
:10A2B000D3F898048DF81600D3F89C348DF8173035
:10A2C000540601D1052904D0012204A90020FEF77B
:10A2D0006FFF3B4B2B404BB197F8D830002B40F031
:10A2E0003E81384B1B68D80700F13D82DFF8CCB0C7
:10A2F000DFF8C090DFF8D8A05F465E46002411E08A
:10A30000234407EBC3030121DA88B280DA88009185
:10A31000002318464146FEF779FFB8F1080F2ED00A
:10A320000134183604F10C0325FA03F3D9075FFA58
:10A3300084F8F2D504EB840309EB8303082CD3F8EB
:10A340000837DBB208BF1023DAD032899A424FEACD
:10A350004403D5D11A1907EBC202B188D2889142C1
:10A36000CED9B8F1000FD8D197F8D830002B00F033
:10A370009D82012251461448FEF7FAFFD0E7134BA5
:10A380002B40002B00F0DB800A4BD3F86C94C3F811
:10A390006C94BFF36F8FBFF34F8F15F4806540F05F
:10A3A000D180CDE90255054E024CDFF828A00025EA
:10A3B0001BE000BF00700240409C0010AC71002008
:10A3C000FCFB1F00F0ED00E02199020000040001F9
:10A3D0004C700240019C0010002D00F05A82B8F130
:10A3E000070F00F089800135183629FA05F3DB07DD
:10A3F0005FFA85F8F0D505EB850205EB450307EB21
:10A40000C30304EB8202D2F80416588A014489B2CD
:10A410005982588A318A814240F2A5805B8AB08A8B
:10A42000C91A89B2F368C2F80036814228BF0146D2
:10A430000B44C2F80416F36097F8D83005EB0A0114
:10A440008900002B48D0C94B5B68C3F30803002B7D
:10A4500040F0A581EFF31083002B00F03E8197F8C8
:10A46000D830CBB3D4F82C31D4F85021D4F808012B
:10A470001344D4F830210344D4F80C011344D4F825
:10A4800034210344D4F810011344D4F83821034490
:10A49000D4F814011344D4F83C210344D4F818012F
:10A4A0001344D4F840210344D4F81C011344D4F8D5
:10A4B00044210344D4F820011344D4F84821034430
:10A4C000D4F824011344D4F84C210344134497F8DE
:10A4D000D820DBB29A42C5D897F8D8300133DBB226
:10A4E000012287F8D8300A60BFF36F8FBFF34F8F18
:10A4F000B8F1070F7FF477AF9D4D9E4BDFF86CA24C
:10A50000002408E0002C00F0BF81E2B2072A16D038
:10A5100001340BF1180B04F1100229FA02F2D107F1
:10A52000F0D56600321907EBC202BBF80400D188EF
:10A53000884222D801219172E2B2072AE8D107B0FD
:10A54000BDE8F08FD3F88024D3F8803483F0800303
:10A55000C3F3C0130293C2F3C013039323E7002392
:10A5600087F8D830C2E65A8A0121002300911846A4
:10A5700048F08001FEF74AFE31E704F5947104EBE0
:10A58000840255F82100DBF8001005EB82025FFA27
:10A5900080F8C2F80017C2F8048797F8D820E118AD
:10A5A0008900002A4BD0DAF80420C2F30802002AFE
:10A5B00040F05E81EFF3108222B96F4A52681206B2
:10A5C00000F1958097F8D820CAB3D5F82C21D5F89A
:10A5D0005001D5F808C10244D5F830016244D5F8DD
:10A5E0000CC10244D5F834016244D5F810C10244CC
:10A5F000D5F838016244D5F814C10244D5F83C01BD
:10A600006244D5F818C10244D5F840016244D5F837
:10A610001CC10244D5F844016244D5F820C102446B
:10A62000D5F848016244D5F824C10244D5F84C015C
:10A630006244024497F8D800D2B29042C5D897F845
:10A64000D8200132D2B2012087F8D8200860BFF3A9
:10A650006F8FBFF34F8FDBF800202644424407EB97
:10A66000C606CBF80020F28890441FFA88F8A6F8B6
:10A6700006804AE73E4B414F414800245C609C62A3
:10A680009C60DC62DC601C631C615C635C619C63DD
:10A690009C61DC63DC611C641C625C645C629C64C5
:10A6A000C3F85841D3F80024D3F800140A43C3F880
:10A6B0000024D3F80023C3F808232146C3F8040379
:10A6C000DC2238462CF01DFC402321462046012286
:10A6D000BB823B81FEF73CFD89E5274B5B68180692
:10A6E0007FF5BDAE97F8D830002BFBD1F4E697F894
:10A6F000D820002AA3D097F8D820002AF7D19EE7C7
:10A700004FF40012C3F80823032101220020FEF7B2
:10A710008DFC8EE50122C3F82C2504210020FEF7D4
:10A7200085FC62057FF5A4AD91E5D3F8C064D7F848
:10A73000C020F10338D500242646B7F8C6300C49AE
:10A7400023449BB2A7F8C630D1F810353244DC055B
:10A75000C7F8C0203FF563AD66E501220521002062
:10A76000FEF764FC87E500BEC0E500BF00ED00E039
:10A77000007002400A9C001000E100E0AC71002073
:10A780000514C00100240121B7F8D220009123460E
:10A790002046882187F8D740FEF738FD44E501229E
:10A7A0007B48FEF7E5FD1AE6C3F8A027C3F8A467C7
:10A7B00097F8D830B4B2002B4AD0764B5B68C3F31D
:10A7C0000803002B6AD1EFF310831BB9724B5B684F
:10A7D0001B0654D497F8D830D3B37048D0F82C3136
:10A7E000D0F85021D0F808111344D0F830210B4490
:10A7F000D0F80C111344D0F834210B44D0F81011C8
:10A800001344D0F838210B44D0F814111344D0F875
:10A810003C210B44D0F818111344D0F840210B44CC
:10A82000D0F81C111344D0F844210B44D0F8201167
:10A830001344D0F848210B44D0F824111344D0F825
:10A840004C210B44134497F8D820DBB29A42C5D868
:10A8500097F8D830524A0133DBB2012187F8D8305B
:10A860001160BFF36F8FBFF34F8FD7F8C02064E73D
:10A87000012247480393FEF77BFD039BEBE697F825
:10A88000D830002BFBD1E3E7029A002A7FF449AECF
:10A890003EE6039B002B3FF4A6ADACE50122404908
:10A8A0003B48FEF765FDD7F8C02046E797F8D8305B
:10A8B000002B49D0374B5B68C3F30803002B61D1F1
:10A8C000EFF310831BB9344B5B681A0655D497F825
:10A8D000D830CBB3D9F82C31D9F85021D9F8081198
:10A8E0001344D9F830210B44D9F80C111344D9F88A
:10A8F00034210B44D9F810111344D9F838210B44F2
:10A90000D9F814111344D9F83C210B44D9F8181183
:10A910001344D9F840210B44D9F81C111344D9F839
:10A9200044210B44D9F820111344D9F848210B4491
:10A93000D9F824111344D9F84C210B44134497F847
:10A94000D820DBB29A42C5D897F8D8300133DBB2B1
:10A95000012287F8D830CAF80020BFF36F8FBFF309
:10A960004F8F97F8D830002B3FF4DAAC97F8D830F7
:10A97000013BDBB287F8D830D2E497F8D830002B0F
:10A98000FBD1E1E7012251460148FEF7F1FCE8E77F
:10A990003598020000ED00E000E100E000700240A8
:10A9A0004870024030B5012883B000F09B8053D33B
:10A9B00002283CD1B44BD3F80435002B40F0CB80B7
:10A9C000B14AD2F800341C05FBD54FF40063C2F83D
:10A9D0000034BFF36F8FBFF34F8FAC4AAC4B12689C
:10A9E0001B68082A00F0CB80A749AA4A80230120CF
:10A9F000C1F81C35C1F80403C2F884315360A64D78
:10AA000043F204044FF080432268AA4211D0D3F8E5
:10AA10000C14D3F80C24D003F6D5CA07F4D59A4BFE
:10AA20000122C3F80425BFF36F8FBFF34F8F03B02C
:10AA300030BD02AA002102F8041D1046FEF7F8FE00
:10AA40009DF804000028E2D010460191FEF7EEFECA
:10AA5000019A002AD8D0E2E78B4BD3F80025002AD0
:10AA6000E5D14FF480014FF40062C3F80813C3F836
:10AA70000024BFF36F8FBFF34F8F844B1B68082BED
:10AA800000F0AC80804B0122C3F80025BFF36F8F2C
:10AA9000BFF34F8F43F2040203F18D5303F5772385
:10AAA000126803F2DB539A4200F0BF804FF08043FC
:10AAB000D3F80C24D3F80C34D90301D5D207B6D47B
:10AAC00043F20402744B12689A4200F00C81734BFB
:10AAD00000221A601B6801934FF080430122019904
:10AAE0001A60A4E7684BD3F80025002A9FD0002203
:10AAF000C3F80425BFF36F8FBFF34F8F65498020E4
:10AB0000C1F88400BFF34F8FBFF36F8FD3F80013EA
:10AB1000C3F80813C3F80025BFF36F8FBFF34F8F3F
:10AB200043F2040103F18D5303F57723096803F21F
:10AB3000DB53994200F08E80594B01221A60594B29
:10AB40005A68C2F30802003218BF01220221002015
:10AB5000FEF76CFA6BE743F204024F4B12689A421D
:10AB600000F0AC804FF08043D3F80C24D3F80C34C1
:10AB7000DB037FF525AFD5077FF522AF57E7032B22
:10AB800009D8494A1168002979D1484C49F27530F1
:10AB90001060216010605A1E022A10D8424A1168C3
:10ABA000002964D1424D3948394B00681B6849F28D
:10ABB000753414602960146008287FF415AF032BE6
:10ABC0003FF612AF3B493C4B40F2E3704022086035
:10ABD0001A60BFF36F8FBFF34F8F05E72C4B1B68D5
:10ABE0005A1E022A12D8304B1A68002A40F08D8073
:10ABF0002F4949F2753203201A6008601A60234A0F
:10AC0000234B12681B68082A7FF43CAF032B3FF6E6
:10AC100039AF254B1A68002A73D1244949F275329D
:10AC2000C0201A6008601A602CE702AB002203F80B
:10AC3000042D1846FEF7FCFD9DF8041000293FF492
:10AC400035AF18460192FEF7F1FD019B002B7FF412
:10AC5000EEAE35E702A800F8042DFEF7E9FD9DF8F9
:10AC60000430002B3FF468AFFEF7DEFD67E70749CD
:10AC7000074B0F4A08681B68002111609CE70B4ACC
:10AC80000021116087E700BF007002403001001012
:10AC90003401001000E100E0DBE5B15100010040AB
:10ACA0000400004000ED00E000EC064014EC06401B
:10ACB00014ED0640007802400478024002AB002206
:10ACC00003F8042D1846FEF7B3FD9DF80410002983
:10ACD0003FF448AF18460192FEF7A8FD019B002BF8
:10ACE0007FF4A5AE6CE602A8002300F8043DFEF751
:10ACF0009FFD9DF80430002B3FF4E9AEFEF792FD76
:10AD000095E6044BC0221A60BCE6034B03221A608E
:10AD100075E700BF14EC064014ED064008B50020AE
:10AD2000FDF73CFC20B9034B1B68DB0700D500BED8
:10AD300008BD00BFF0ED00E0FDF72ABC014B012289
:10AD40001A7070476C9B002034493548F8B50F469F
:10AD5000344D06462CF020FF33482CF01DFF0A200E
:10AD60002CF032FF284618F0B7FC3049284618F07E
:10AD700017FD002402E001347F2C16D02846E1B2F2
:10AD800018F0D8FD284618F043FE0028F3D13946C4
:10AD900030462CF001FF214625482CF0FDFE013401
:10ADA0000A202CF011FF7F2CE8D100F06FFB044645
:10ADB000D8B100F089FB00F0DDFA044648B100F09C
:10ADC000FFFA00F03DFA0446D8B100F071FA2046CF
:10ADD000F8BD124912482CF0DFFE16482CF0DCFEBC
:10ADE0000A202CF0F1FE2046F8BD0C490C482CF04E
:10ADF000D3FE11482CF0D0FE0A202CF0E5FE2046B0
:10AE0000F8BD064906482CF0C7FE0C482CF0C4FEDD
:10AE10000A202CF0D9FE2046F8BD00BF40A2050054
:10AE200044A20500849B00204CA20500801A060065
:10AE300058A2050080A2050074A2050090A205009A
:10AE40004B4A38B51388DB0700D438BD138849490D
:10AE5000494823F001031B041B0C13802CF09CFEBB
:10AE600046482CF099FE0A202CF0AEFE444B1B788D
:10AE7000002B4DD1434C2378002B35D100F024FB1F
:10AE800000F09EFA00F014FA17F0A6F8DFED3E7A13
:10AE90003E4A3F4D20EE270A1046BCEEC00A132161
:10AEA00010EE103A9BB22B80C3F307259570D37038
:10AEB00018F060F9002843D001282DD00130C4D10A
:10AEC0002C492D482CF068FE32482CF065FE0A20F3
:10AED0002CF07AFE304B1B78002BB6D02D492F4832
:10AEE000BDE8384019F0B4BF224923482CF054FE85
:10AEF0002B482CF051FE0A202CF066FE264B1B78C6
:10AF0000002BA2D026492548BDE8384019F0A0BF43
:10AF10000F2017F0FDF9ADE7164917482CF03CFE5D
:10AF200020482CF039FE0A202CF04EFE1A4B1B78DC
:10AF3000002B8AD01B491948BDE8384019F088BF5A
:10AF40000C490D482CF028FE17482CF025FE0A204D
:10AF50002CF03AFE104B1B7801222270002B3FF49C
:10AF600074AF11490D48BDE8384019F071BF00BFFA
:10AF70006E9B002040A2050044A2050020A1050010
:10AF80006C9B00208A720020CDCCCC3D1C6100203F
:10AF9000887200208CA1050080980020A4970020D2
:10AFA00030A1050070A1050060A105002DE9F84F52
:10AFB0006F4C2388590600AF12D523886D4A6E491D
:10AFC00012786E4823F040031B041B0C23808AB1C7
:10AFD0002CF0E2FD6A482CF0DFFD0A202CF0F4FD95
:10AFE0002388DA0600F1818023881B0714D4BD462C
:10AFF000BDE8F88F2CF0D0FD62482CF0CDFD0A2082
:10B000002CF0E2FD01F0A4F85F4B1B78002BE7D099
:10B010000F2017F07DF9E3E72388574957485B4E27
:10B0200023F008031B041B0C23802CF0B5FD5848AB
:10B030002CF0B2FD0A202CF0C7FD347804EB440359
:10B04000DA1D02F4FF62EB46ADEB020D0021012B8D
:10B05000E8468DF8001003F1FF3203DD0DF1010029
:10B060002BF04FFF9CB1DFF83891DFF858A14D4627
:10B07000002415F8012B08EB040051462CF0FCFDD0
:10B080003278A5EB090303349A42E4B2F1DC414B78
:10B0900039493A4800221A702CF07EFD41463E485C
:10B0A0002CF07AFD0A202CF08FFD3C4B1B78C3B1AD
:10B0B000354B1B78ABB133787BB1394DDFF8049158
:10B0C000DFF8E4802C4614F8012B4946404619F07D
:10B0D000D7FE3278631B9A42F5DC3249324819F0C8
:10B0E000B7FEDD46BD46BDE8F88F23882F4D2249C7
:10B0F0002248DFF8D4802E4E23F010031B041B0CD3
:10B1000023802CF049FD29782A48002914BF4146A4
:10B1100031462CF041FD0A202CF056FD1F4B1B78C8
:10B1200043B12A7823492048002A14BF42463246B8
:10B1300019F0A6FE2B7833B91F4A13780133DBB21E
:10B140000A2B137003D0134B00221A704CE76420B3
:10B150001AF070F8BFF34F8F1849194BCA6802F400
:10B16000E0621343CB60BFF34F8F00BFFDE700BF2A
:10B170006E9B0020609A002040A2050044A20500BA
:10B18000D8A10500F4A105006C9B0020679A00205F
:10B190001CA205008A72002054BE05008098002081
:10B1A0006C9A002088C70500A4970020689A0020A8
:10B1B000CCA1050008A205008B72002000ED00E084
:10B1C0000400FA0538A20500BCA1050038B5164BED
:10B1D0001B781BB1154D2B885B0700D438BD144973
:10B1E0001448154C2CF0D8FC14482CF0D5FC0A203F
:10B1F0002CF0EAFC2B8823F004031B041B0C2B808F
:10B2000007E012F039F8C0B216F092FD05201AF0EE
:10B2100011F8204611F0E4FF00282046F1DC0A2056
:10B22000BDE8384016F084BD6C9B00206E9B00206A
:10B230000CA1050044A205008C97002010A1050078
:10B2400010B54421154819F051FD78B90C234FF081
:10B25000000163F30F3160F3CB21044641F4C26176
:10B260000E4819F04DFD68B9012010BD0C490D487C
:10B270002CF092FC0C482CF08FFC0A202CF0A4FC43
:10B28000002010BD064907482CF086FC07482CF02A
:10B2900083FC0A202CF098FC204610BD8C72002004
:10B2A000A0A2050044A20500A8A20500C4A20500B2
:10B2B00010B52149214882B02CF06EFC20482CF0BA
:10B2C0006BFC0A202CF080FC1E49684619F038FD02
:10B2D0009DF906307BB1184918482CF05DFC1A48DE
:10B2E0002CF05AFC0A202CF06FFC184B00225A74E8
:10B2F0009A7402B010BDDDED007A0F490F48FCEEE4
:10B30000E77A17EE903A9CB22CF046FC07EE904A92
:10B31000F8EE677A17EE900A2BF06AF902460B46B0
:10B320000B482CF039FC0A202CF04EFC074B221263
:10B330005A749C7402B010BDA0A2050044A205007E
:10B34000E0A205008C720020F8A205001C6100201C
:10B35000F0A20500014819F0C7BC00BF8C720020A4
:10B3600010B5034B0360044619F0E2FB204610BD04
:10B37000D0BF050010B500230C4A0D485C2119F020
:10B38000E9FB044628B10021094819F053FA204688
:10B3900010BD084908482CF0FFFB08482CF0FCFBC6
:10B3A0000A202CF011FC204610BD00BF849B002019
:10B3B0009072002010A3050044A20500A8A2050079
:10B3C00030B5214D214C93B0294620462CF0E4FBAA
:10B3D0001F482CF0E1FB0A202CF0F6FB6A4609A975
:10B3E0001C4819F0F3FBDDED0E7AB2EE047A67EE3D
:10B3F000877A2946FCEEE77A204617EE903A9CB20F
:10B400002CF0CAFB07EE904AF8EE677A17EE900A26
:10B410002BF0EEF80AA3D3E900232BF041F9024602
:10B420000B460D482CF0B8FB0A202CF0CDFB0B4B43
:10B4300022125A739C7313B030BD00BFAFF300806B
:10B440009A9999999999B93F10A3050044A20500CA
:10B4500018A305009072002028A305001C6100209D
:10B4600010B5064C204619F04FFB054B23602046D3
:10B47000044A0549BDE8104029F0F8BC907200204C
:10B48000D0BF05000060002061B3020008B5094983
:10B49000094818F085FD08B9012008BD074908488A
:10B4A0002CF07AFB07482CF077FB0A202CF08CFB61
:10B4B000002008BD849B0020CC72002030A3050032
:10B4C00044A20500A8A20500F0B535493548364C20
:10B4D00083B02CF061FB35482CF05EFB0A202CF089
:10B4E00073FB204618F036FE637A63B12C492D4871
:10B4F0002CF052FB2E482CF04FFB0A2003B0BDE885
:10B50000F0402CF061BB204618F066FB10EE100AEC
:10B510002BF06EF80022274B2BF0C2F82BF070FBBB
:10B5200005B2204618F068FB30EE000A1C491D48A1
:10B53000BCEEC00A10EE103A9CB22CF02DFB07EEC8
:10B54000905AF8EEE77A17EE900A2BF051F812A312
:10B55000D3E900232BF0A4F807EE904AF8EE677ABF
:10B56000064617EE900A0F462BF042F80022124BC7
:10B570002BF096F832463B46CDE900010F482CF0FF
:10B580000BFB0A202CF020FB0D4B2A129C719D72A4
:10B590005A7203B0F0BD00BF9A9999999999B93F31
:10B5A00030A3050044A20500CC72002034A305009E
:10B5B00054A30500000024400000E03F44A3050020
:10B5C0001C610020014818F0F5BA00BFCC720020C1
:10B5D000437810B504467BB91C4900780A6822F00C
:10B5E00001020A60F0B1012806D1194B1B681B6AE1
:10B5F0002BB1207998476378033B012B00D910BD0C
:10B60000124A2178136823F001031360A9B10129BC
:10B61000F5D10F4B1B681B6A002BF0D02079BDE8D9
:10B62000104018470A4B1B68DB69002BE7D098478E
:10B630006378033B012BE2D8E2E7054B1B68DB692B
:10B64000002BDCD0BDE81040184700BF7877002001
:10B6500004730020037883B1012B0DD1427852B9D5
:10B660000C4A117839B182F84830037A82F84930AF
:10B67000437A82F84A3070477047074A4378126825
:10B680001BB19369002BF6D018471369002BF2D039
:10B69000184700BF2C7300200473002043783BBB85
:10B6A0002DE9F041B24C25788AB025B1B4F8463086
:10B6B0000133A4F84630437BBBB1C378E02B18D0EC
:10B6C000027B81688DF8193000248DF81820A94B71
:10B6D0008C541B68027C8DF81C208168C289DB6851
:10B6E0000591ADF81A2005A898470AB0BDE8F08189
:10B6F000704735B9037B042B7DD09F4804F09CF93B
:10B70000F3E7826813786370072BEED8DFE803F065
:10B71000403D396E562F0E04037B032B00F0D28080
:10B72000072B00F0E28001236370DEE7934B1B7868
:10B730008DF80C300025022302A8A570A4F846500D
:10B7400025708DF8083007F0A1FD8D4B187808F0B2
:10B7500053FB8C4B8DF814500FCB0AAD05E90F004D
:10B7600005A807F0A1FF2378002BBED1C5E70AA8E2
:10B77000012300F8143D07F097FF2378002BB4D184
:10B78000BBE70123A3706370AFE702232371ACE72B
:10B790007A4A12788DF818200023022205A8A4F80E
:10B7A000463023708DF8142007F070FD744B187824
:10B7B00008F022FB2378002B97D19EE7037B2371AF
:10B7C000F22B4FF004011D4628BFF225012B6171B9
:10B7D0008BD96D49012300E08268D25C0133DCB271
:10B7E0000132AC4201F8012FF6D37EE7002201239B
:10B7F000A270637079E783681A78012A7FF47DAFBD
:10B800005A78012A7FF479AF9A78012A7FF475AFCC
:10B81000DE78012E7FF471AF0AAF4FF0020807F80F
:10B82000208D3846A570A4F8465084F8485084F816
:10B83000495084F84A502670667084F8048007F0F6
:10B8400045FC4E4B9DF80C201A7038468DF8088048
:10B850008DF80C6007F01AFD284608F0CDFA4B4928
:10B86000454804F091F841F28831434804F0ECF87F
:10B8700094F84830002B64D040F2035194F84920EA
:10B8800094F84A3084F848506670A180A271E37140
:10B8900001A9207907F08CFB002842D00023032265
:10B8A0008DF814300793ADF820308DF822203248FF
:10B8B00004F0B2F805A807F0F5FF2378002B7FF419
:10B8C00014AF1AE702238DF814305178937805A845
:10B8D00043EA0123ADF8183007F0E6FE2378012291
:10B8E0006270002B7FF401AF07E703238DF814305B
:10B8F0005178937843EA0123ADF818301379D07862
:10B9000051791B0243EA00430B43642101FB03F31B
:10B91000079393798DF8203005A807F0C5FE2378AA
:10B92000DDE7A2782379A2B9E02017498DF8142029
:10B930000322ADF820308DF8180007918DF82220F1
:10B94000B5E76378012B23D0042BA1D101236370C9
:10B950009EE70120E0210C4AADF8203040F60303B9
:10B960008DF814008DF818100792ADF822309EE77C
:10B970002C730020047300207873002028730020AB
:10B98000B67300200873002031730020A1B90200B3
:10B99000B4F84630A37102221B126371227177E75B
:10B9A00010B52F4C94F8483086B01BB3002340F2FA
:10B9B000035094F8491094F84A2084F84830012341
:10B9C000A080A171E2716370032001A907F0F0FA71
:10B9D000F0B1002303228DF808300493ADF8143041
:10B9E0008DF816201F4804F017F802A807F05AFF38
:10B9F00006B010BD6378012B29D0042B08BF0123AA
:10BA0000207908BF637001A907F0D2FA0028E0D1BD
:10BA1000A378227963B9E02013498DF80830032315
:10BA2000ADF814208DF80C0004918DF81630D9E78C
:10BA30000124E0200C49ADF8142040F603038DF8F2
:10BA400008408DF80C000491ADF81630CAE7B4F840
:10BA50004630A37102201B1263712071B5E700BF4D
:10BA60002C73002078730020317300200246024BB3
:10BA70000068516803C37047987300200246024B68
:10BA80000068516803C370479073002010B40346E8
:10BA9000044C59689A680068DB680FC45DF8044B71
:10BAA000704700BF3061002010B40346044C596851
:10BAB0009A680068DB680FC45DF8044B704700BFEC
:10BAC0005061002010B40346044C59689A6800681D
:10BAD000DB680FC45DF8044B704700BF4061002075
